{
  "address": "0x5349b26a34d22Fba6E513c3f0396709fD4eD29A8",
  "abi": [
    {
      "inputs": [
        {
          "internalType": "address",
          "name": "_l2CrossDomainMessenger",
          "type": "address"
        },
        {
          "internalType": "string",
          "name": "_name",
          "type": "string"
        },
        {
          "internalType": "string",
          "name": "_symbol",
          "type": "string"
        }
      ],
      "stateMutability": "nonpayable",
      "type": "constructor"
    },
    {
      "anonymous": false,
      "inputs": [
        {
          "indexed": true,
          "internalType": "address",
          "name": "owner",
          "type": "address"
        },
        {
          "indexed": true,
          "internalType": "address",
          "name": "spender",
          "type": "address"
        },
        {
          "indexed": false,
          "internalType": "uint256",
          "name": "value",
          "type": "uint256"
        }
      ],
      "name": "Approval",
      "type": "event"
    },
    {
      "anonymous": false,
      "inputs": [
        {
          "indexed": true,
          "internalType": "address",
          "name": "_to",
          "type": "address"
        },
        {
          "indexed": false,
          "internalType": "uint256",
          "name": "_amount",
          "type": "uint256"
        }
      ],
      "name": "DepositFinalized",
      "type": "event"
    },
    {
      "anonymous": false,
      "inputs": [
        {
          "indexed": false,
          "internalType": "contract iOVM_L1TokenGateway",
          "name": "_l1TokenGateway",
          "type": "address"
        }
      ],
      "name": "Initialized",
      "type": "event"
    },
    {
      "anonymous": false,
      "inputs": [
        {
          "indexed": true,
          "internalType": "address",
          "name": "from",
          "type": "address"
        },
        {
          "indexed": true,
          "internalType": "address",
          "name": "to",
          "type": "address"
        },
        {
          "indexed": false,
          "internalType": "uint256",
          "name": "value",
          "type": "uint256"
        }
      ],
      "name": "Transfer",
      "type": "event"
    },
    {
      "anonymous": false,
      "inputs": [
        {
          "indexed": true,
          "internalType": "address",
          "name": "_from",
          "type": "address"
        },
        {
          "indexed": false,
          "internalType": "address",
          "name": "_to",
          "type": "address"
        },
        {
          "indexed": false,
          "internalType": "uint256",
          "name": "_amount",
          "type": "uint256"
        }
      ],
      "name": "WithdrawalInitiated",
      "type": "event"
    },
    {
      "inputs": [
        {
          "internalType": "address",
          "name": "owner",
          "type": "address"
        },
        {
          "internalType": "address",
          "name": "spender",
          "type": "address"
        }
      ],
      "name": "allowance",
      "outputs": [
        {
          "internalType": "uint256",
          "name": "",
          "type": "uint256"
        }
      ],
      "stateMutability": "view",
      "type": "function"
    },
    {
      "inputs": [
        {
          "internalType": "address",
          "name": "spender",
          "type": "address"
        },
        {
          "internalType": "uint256",
          "name": "amount",
          "type": "uint256"
        }
      ],
      "name": "approve",
      "outputs": [
        {
          "internalType": "bool",
          "name": "",
          "type": "bool"
        }
      ],
      "stateMutability": "nonpayable",
      "type": "function"
    },
    {
      "inputs": [
        {
          "internalType": "address",
          "name": "account",
          "type": "address"
        }
      ],
      "name": "balanceOf",
      "outputs": [
        {
          "internalType": "uint256",
          "name": "",
          "type": "uint256"
        }
      ],
      "stateMutability": "view",
      "type": "function"
    },
    {
      "inputs": [],
      "name": "decimals",
      "outputs": [
        {
          "internalType": "uint8",
          "name": "",
          "type": "uint8"
        }
      ],
      "stateMutability": "view",
      "type": "function"
    },
    {
      "inputs": [
        {
          "internalType": "address",
          "name": "spender",
          "type": "address"
        },
        {
          "internalType": "uint256",
          "name": "subtractedValue",
          "type": "uint256"
        }
      ],
      "name": "decreaseAllowance",
      "outputs": [
        {
          "internalType": "bool",
          "name": "",
          "type": "bool"
        }
      ],
      "stateMutability": "nonpayable",
      "type": "function"
    },
    {
      "inputs": [
        {
          "internalType": "address",
          "name": "_to",
          "type": "address"
        },
        {
          "internalType": "uint256",
          "name": "_amount",
          "type": "uint256"
        }
      ],
      "name": "finalizeDeposit",
      "outputs": [],
      "stateMutability": "nonpayable",
      "type": "function"
    },
    {
      "inputs": [],
      "name": "getFinalizeWithdrawalL1Gas",
      "outputs": [
        {
          "internalType": "uint32",
          "name": "",
          "type": "uint32"
        }
      ],
      "stateMutability": "view",
      "type": "function"
    },
    {
      "inputs": [
        {
          "internalType": "address",
          "name": "spender",
          "type": "address"
        },
        {
          "internalType": "uint256",
          "name": "addedValue",
          "type": "uint256"
        }
      ],
      "name": "increaseAllowance",
      "outputs": [
        {
          "internalType": "bool",
          "name": "",
          "type": "bool"
        }
      ],
      "stateMutability": "nonpayable",
      "type": "function"
    },
    {
      "inputs": [
        {
          "internalType": "contract iOVM_L1TokenGateway",
          "name": "_l1TokenGateway",
          "type": "address"
        }
      ],
      "name": "init",
      "outputs": [],
      "stateMutability": "nonpayable",
      "type": "function"
    },
    {
      "inputs": [],
      "name": "l1TokenGateway",
      "outputs": [
        {
          "internalType": "contract iOVM_L1TokenGateway",
          "name": "",
          "type": "address"
        }
      ],
      "stateMutability": "view",
      "type": "function"
    },
    {
      "inputs": [],
      "name": "messenger",
      "outputs": [
        {
          "internalType": "address",
          "name": "",
          "type": "address"
        }
      ],
      "stateMutability": "view",
      "type": "function"
    },
    {
      "inputs": [],
      "name": "name",
      "outputs": [
        {
          "internalType": "string",
          "name": "",
          "type": "string"
        }
      ],
      "stateMutability": "view",
      "type": "function"
    },
    {
      "inputs": [
        {
          "internalType": "address",
          "name": "_dispenser",
          "type": "address"
        }
      ],
      "name": "setDispenser",
      "outputs": [],
      "stateMutability": "nonpayable",
      "type": "function"
    },
    {
      "inputs": [],
      "name": "symbol",
      "outputs": [
        {
          "internalType": "string",
          "name": "",
          "type": "string"
        }
      ],
      "stateMutability": "view",
      "type": "function"
    },
    {
      "inputs": [],
      "name": "totalSupply",
      "outputs": [
        {
          "internalType": "uint256",
          "name": "",
          "type": "uint256"
        }
      ],
      "stateMutability": "view",
      "type": "function"
    },
    {
      "inputs": [
        {
          "internalType": "address",
          "name": "recipient",
          "type": "address"
        },
        {
          "internalType": "uint256",
          "name": "amount",
          "type": "uint256"
        }
      ],
      "name": "transfer",
      "outputs": [
        {
          "internalType": "bool",
          "name": "",
          "type": "bool"
        }
      ],
      "stateMutability": "nonpayable",
      "type": "function"
    },
    {
      "inputs": [
        {
          "internalType": "address",
          "name": "sender",
          "type": "address"
        },
        {
          "internalType": "address",
          "name": "recipient",
          "type": "address"
        },
        {
          "internalType": "uint256",
          "name": "amount",
          "type": "uint256"
        }
      ],
      "name": "transferFrom",
      "outputs": [
        {
          "internalType": "bool",
          "name": "",
          "type": "bool"
        }
      ],
      "stateMutability": "nonpayable",
      "type": "function"
    },
    {
      "inputs": [
        {
          "internalType": "uint256",
          "name": "_amount",
          "type": "uint256"
        }
      ],
      "name": "withdraw",
      "outputs": [],
      "stateMutability": "nonpayable",
      "type": "function"
    },
    {
      "inputs": [
        {
          "internalType": "address",
          "name": "_to",
          "type": "address"
        },
        {
          "internalType": "uint256",
          "name": "_amount",
          "type": "uint256"
        }
      ],
      "name": "withdrawTo",
      "outputs": [],
      "stateMutability": "nonpayable",
      "type": "function"
    }
  ],
  "transactionHash": "0xfd51f804f09e774ced967d6162a8b326a6c9e5741a6c9b4776d709daadd46e2d",
  "args": [
    "0x4200000000000000000000000000000000000007",
    "JunkCoin",
    "JKC"
  ],
  "bytecode": "0x60806040523480156200001c5760008062000019620004ad565b50505b50604051620023a0380380620023a0833981810160405260608110156200004d576000806200004a620004ad565b50505b8101908080519291906020018051604051939291908464010000000082111562000081576000806200007e620004ad565b50505b908301906020820185811115620000a2576000806200009f620004ad565b50505b8251640100000000811182820188101715620000c857600080620000c5620004ad565b50505b825250602001908051906020019080838360005b83811015620000f6578082015183820152602001620000dc565b50505050905090810190601f168015620001245780820380516001836020036101000a031916815260200191505b5060405260200180516040519392919084640100000000821115620001535760008062000150620004ad565b50505b908301906020820185811115620001745760008062000171620004ad565b50505b82516401000000008111828201881017156200019a5760008062000197620004ad565b50505b825250602001908051906020019080838360005b83811015620001c8578082015183820152602001620001ae565b50505050905090810190601f168015620001f65780820380516001836020036101000a031916815260200191505b506040525050508181600082828780806000806101000a81620002186200051a565b816001600160a01b0302191690836001600160a01b03160217906200023c62000577565b505050505081600590805162000257929160200190620005c6565b5060068180516200026d929160200190620005c6565b50601260076001816200027f6200051a565b8160ff021916908360ff160217906200029762000577565b5050505050620002b25a620002ab62000688565b8262000300565b5050505a620002c062000688565b600761010081620002d06200051a565b816001600160a01b0302191690836001600160a01b0316021790620002f462000577565b505050505050620006f2565b6001600160a01b038216620003665760405162461bcd60e51b815260206004820152601f60248201527f45524332303a206d696e7420746f20746865207a65726f20616464726573730060448201526064016040518091039062000363620004ad565b50505b62000374600083836200043c565b62000399816004620003856200051a565b6200044160201b62000d371790919060201c565b806004620003a662000577565b5050506001600160a01b03821660009081526002602052620003d290829060409020620003856200051a565b6001600160a01b03831660009081526002602052604090208190620003f662000577565b5050506001600160a01b03821660007fddf252ad1be2c89b69c2b068fc378daa952ba7f163c4a11628f55a4df523b3ef8360405190815260200160405180910390a35050565b505050565b600082820183811015620004a65760405162461bcd60e51b815260206004820152601b60248201527f536166654d6174683a206164646974696f6e206f766572666c6f770000000000604482015260640160405180910390620004a3620004ad565b50505b9392505050565b632a2a7adb598160e01b8152600481016020815285602082015260005b86811015620004e7578086015182820160400152602001620004ca565b506020828760640184336000905af158600e01573d6000803e3d6000fd5b3d6001141558600a015760016000f35b505050565b6303daa959598160e01b8152836004820152602081602483336000905af158600e01573d6000803e3d6000fd5b3d6001141558600a015760016000f35b8051935060005b60408110156200043c576000828201526020016200055e565b6322bd64c0598160e01b8152836004820152846024820152600081604483336000905af158600e01573d6000803e3d6000fd5b3d6001141558600a015760016000f35b6000815260206200055e565b8280620005d26200051a565b600181600116156101000203166002900490600052602060002090601f01602090048101928262000612576000856200060a62000577565b505062000676565b82601f106200063057805160ff191683800117856200060a62000577565b828001600101856200064162000577565b5050821562000676579182015b8281111562000676578251826200066462000577565b5050916020019190600101906200064e565b5062000684929150620006cf565b5090565b6373509064598160e01b8152602081600483336000905af158600e01573d6000803e3d6000fd5b3d6001141558600a015760016000f35b805160008252935060206200055e565b80821115620006845760008082620006e662000577565b505050600101620006cf565b611c9e80620007026000396000f3fe6080604052348015610019576000806100166116e4565b50505b506004361061015a5760003560e01c80633cb747bf116100d6578063a457c2d71161008a578063a9059cbb1161006f578063a9059cbb14610464578063bdeaf64114610499578063dd62ed3e146104ba5761015a565b8063a457c2d714610427578063a84ce98c1461045c5761015a565b80638d6e9a5b116100bb5780638d6e9a5b146103bb57806395d89b41146103f05780639cbb41dc146103f85761015a565b80633cb747bf1461036857806370a082311461038c5761015a565b8063205c28781161012d5780632e1a7d4d116101125780632e1a7d4d146102ef578063313ce5671461031557806339509351146103335761015a565b8063205c28781461027b57806323b872dd146102b05761015a565b806306fdde0314610168578063095ea7b3146101e757806318160ddd1461023057806319ab453c1461024a575b6000806101656116e4565b50505b6101706104f1565b60405160208082528190810183818151815260200191508051906020019080838360005b838110156101ac578082015183820152602001610194565b50505050905090810190601f1680156101d95780820380516001836020036101000a031916815260200191505b509250505060405180910390f35b61021c60048036036040811015610206576000806102036116e4565b50505b506001600160a01b0381351690602001356105ae565b604051901515815260200160405180910390f35b6102386105cc565b60405190815260200160405180910390f35b61027960048036036020811015610269576000806102666116e4565b50505b50356001600160a01b03166105dd565b005b6102796004803603604081101561029a576000806102976116e4565b50505b506001600160a01b0381351690602001356106ba565b61021c600480360360608110156102cf576000806102cc6116e4565b50505b506001600160a01b0381358116916020810135909116906040013561071e565b6102796004803603602081101561030e5760008061030b6116e4565b50505b50356107b2565b61031d61081d565b60405160ff909116815260200160405180910390f35b61021c600480360360408110156103525760008061034f6116e4565b50505b506001600160a01b038135169060200135610822565b610370610887565b6040516001600160a01b03909116815260200160405180910390f35b610238600480360360208110156103ab576000806103a86116e4565b50505b50356001600160a01b03166108a5565b610279600480360360408110156103da576000806103d76116e4565b50505b506001600160a01b0381351690602001356108c5565b610170610aed565b61027960048036036020811015610417576000806104146116e4565b50505b50356001600160a01b0316610b93565b61021c60048036036040811015610446576000806104436116e4565b50505b506001600160a01b038135169060200135610c5a565b610370610cd0565b61021c60048036036040811015610483576000806104806116e4565b50505b506001600160a01b038135169060200135610cdc565b6104a1610cf0565b60405163ffffffff909116815260200160405180910390f35b610238600480360360408110156104d9576000806104d66116e4565b50505b506001600160a01b0381358116916020013516610cf7565b60606005806104fe61174f565b600181600116156101000203166002900480601f01602080910402602001604051908101604052818152919060208301828061053861174f565b600181600116156101000203166002900480156105a45780601f1061057257610100808361056461174f565b0402835291602001916105a4565b820191906000526020600020905b8161058961174f565b8152906001019060200180831161058057829003601f168201915b5050505050905090565b60006105c26105bb610d9f565b8484610daa565b5060015b92915050565b600060046105d861174f565b905090565b60008060016105ea61174f565b906101000a90046001600160a01b03166001600160a01b0316146106325760405162461bcd60e51b815260040161062090611a68565b6040518091039061062f6116e4565b50505b806001808061063f61174f565b816001600160a01b0302191690836001600160a01b03160217906106616117aa565b5050507f908408e307fc569b417f6cbec5d5a06f44a0a505ac0479b47d421a4b2fd6a1e6600160009061069261174f565b906101000a90046001600160a01b03166040516106af9190611a54565b60405180910390a150565b60008060016106c761174f565b906101000a90046001600160a01b03166001600160a01b031614156107105760405162461bcd60e51b81526004016106fe90611aad565b6040518091039061070d6116e4565b50505b61071a8282610ed2565b5050565b600061072b848484610fdc565b6107a884610737610d9f565b6107a385604051606081016040526028808252611bb760208301396001600160a01b038a1660009081526003602052604090206000610774610d9f565b6001600160a01b03166001600160a01b0316815260200190815260200160002061079c61174f565b919061117a565b610daa565b5060019392505050565b60008060016107bf61174f565b906101000a90046001600160a01b03166001600160a01b031614156108085760405162461bcd60e51b81526004016107f690611aad565b604051809103906108056116e4565b50505b61081a5a6108146117f8565b82610ed2565b50565b600090565b60006105c261082f610d9f565b846107a38560036000610840610d9f565b6001600160a01b03166001600160a01b031681526020019081526020016000206001600160a01b03891660009081526020919091526040902061088161174f565b90610d37565b60008061089261174f565b906101000a90046001600160a01b031681565b6001600160a01b03811660009081526002602052604081206105c661174f565b60008060016108d261174f565b906101000a90046001600160a01b03166001600160a01b0316141561091b5760405162461bcd60e51b815260040161090990611aad565b604051809103906109186116e4565b50505b6000600161092761174f565b906101000a90046001600160a01b031661093f61121a565b6001600160a01b03165a6109516117f8565b6001600160a01b03161461099f5760405162461bcd60e51b815260040180806020018281038252602e815260200180611b89602e91396040019150506040518091039061099c6116e4565b50505b806001600160a01b03166109b161121a565b6001600160a01b0316636e296e456040518163ffffffff1660e01b815260040160206040518083038186806109e461183e565b1580156109f9576000806109f66116e4565b50505b505a610a0361188a565b5050505050158015610a22573d6000803e3d6000610a1f6116e4565b50505b505050506040513d6020811015610a4157600080610a3e6116e4565b50505b8101908080516001600160a01b0316939093149250610a9d9150505760405162461bcd60e51b8152600401808060200182810382526030815260200180611c006030913960400191505060405180910390610a9a6116e4565b50505b610aa7838361123b565b826001600160a01b03167f162eb12ad2bd8b6ca7960f162208414ab3bc2da9f37953788ffd8cf850c3492b83604051610ae09190611af2565b60405180910390a2505050565b6060600680610afa61174f565b600181600116156101000203166002900480601f016020809104026020016040519081016040528181529190602083018280610b3461174f565b600181600116156101000203166002900480156105a45780601f10610b6057610100808361056461174f565b820191906000526020600020905b81610b7761174f565b81529060010190602001808311610b6e57509395945050505050565b60016007610b9f61174f565b906101000a90046001600160a01b03166001600160a01b03165a610bc16117f8565b6001600160a01b031614610c245760405162461bcd60e51b815260206004820152601260248201527f5065726d697373696f6e2064656e6965642e0000000000000000000000000000604482015260640160405180910390610c216116e4565b50505b806008600181610c3261174f565b816001600160a01b0302191690836001600160a01b0316021790610c546117aa565b50505050565b60006105c2610c67610d9f565b846107a385604051606081016040526025808252611c79602083013960036000610c8f610d9f565b6001600160a01b03166001600160a01b031681526020019081526020016000206001600160a01b038a1660009081526020919091526040902061079c61174f565b6000600161089261174f565b60006105c2610ce9610d9f565b8484610fdc565b620186a090565b6001600160a01b03821660009081526003602052604081206001600160a01b038316600090815260209190915260409020610d3061174f565b9392505050565b600082820183811015610d305760405162461bcd60e51b815260206004820152601b60248201527f536166654d6174683a206164646974696f6e206f766572666c6f770000000000604482015260640160405180910390610d966116e4565b50509392505050565b60005a6105d86117f8565b6001600160a01b038316610df85760405162461bcd60e51b8152600401808060200182810382526024815260200180611c556024913960400191505060405180910390610df56116e4565b50505b6001600160a01b038216610e465760405162461bcd60e51b8152600401808060200182810382526022815260200180611b416022913960400191505060405180910390610e436116e4565b50505b6001600160a01b038316600090815260036020528190604090206001600160a01b0384166000908152602091909152604090208190610e836117aa565b505050816001600160a01b0316836001600160a01b03167f8c5be1e5ebec7d5bd14f71427d1e84f3dd0314c0f7b2291e5b200ac8c7c3b9258360405190815260200160405180910390a3505050565b610edc8282611245565b60007ff4f7b41a000000000000000000000000000000000000000000000000000000008383604051602401610f12929190611a3b565b604051602081830303815290604052907bffffffffffffffffffffffffffffffffffffffffffffffffffffffff19166020820180517bffffffffffffffffffffffffffffffffffffffffffffffffffffffff1690911790529050610f9960006001610f7b61174f565b906101000a90046001600160a01b031682610f94610cf0565b611333565b5a610fa26117f8565b6001600160a01b03167fbb2689ff876f7ef453cf8865dde5ab10349d222e2e1383c5152fbdb083f02da28484604051610ae0929190611a3b565b6001600160a01b03831661102a5760405162461bcd60e51b8152600401808060200182810382526025815260200180611c3060259139604001915050604051809103906110276116e4565b50505b6001600160a01b0382166110785760405162461bcd60e51b8152600401808060200182810382526023815260200180611afc60239139604001915050604051809103906110756116e4565b50505b611083838383611444565b6110be81604051606081016040526026808252611b6360208301396001600160a01b038616600090815260026020526040902061079c61174f565b6001600160a01b038416600090815260026020526040902081906110e06117aa565b5050506001600160a01b038216600090815260026020526111099082906040902061088161174f565b6001600160a01b0383166000908152600260205260409020819061112b6117aa565b505050816001600160a01b0316836001600160a01b03167fddf252ad1be2c89b69c2b068fc378daa952ba7f163c4a11628f55a4df523b3ef8360405190815260200160405180910390a3505050565b600081848411156112125760405162461bcd60e51b81526004018080602001828103825283818151815260200191508051906020019080838360005b838110156111ce5780820151838201526020016111b6565b50505050905090810190601f1680156111fb5780820380516001836020036101000a031916815260200191505b50925050506040518091039061120f6116e4565b50505b505050900390565b6000808061122661174f565b906101000a90046001600160a01b0316905090565b61071a8282611449565b816001600160a01b03165a6112586117f8565b6001600160a01b031614806112d05750600080600861127561174f565b906101000a90046001600160a01b03166001600160a01b0316141580156112d05750600060086112a361174f565b906101000a90046001600160a01b03166001600160a01b03165a6112c56117f8565b6001600160a01b0316145b6113295760405162461bcd60e51b815260206004820152601260248201527f5065726d697373696f6e2064656e6965642e00000000000000000000000000006044820152606401604051809103906113266116e4565b50505b61071a8282611562565b61133b61121a565b6001600160a01b0316633dbb202b8484846040518463ffffffff1660e01b815260040180846001600160a01b03168152602001806020018363ffffffff168152602001828103825284818151815260200191508051906020019080838360005b838110156113b357808201518382015260200161139b565b50505050905090810190601f1680156113e05780820380516001836020036101000a031916815260200191505b50945050505050600060405180830381600087806113fc61183e565b1580156114115760008061140e6116e4565b50505b505a61141b611975565b50505050505015801561143b573d6000803e3d60006114386116e4565b50505b50505050505050565b505050565b6001600160a01b0382166114ac5760405162461bcd60e51b815260206004820152601f60248201527f45524332303a206d696e7420746f20746865207a65726f2061646472657373006044820152606401604051809103906114a96116e4565b50505b6114b860008383611444565b6114c681600461088161174f565b8060046114d16117aa565b5050506001600160a01b038216600090815260026020526114fa9082906040902061088161174f565b6001600160a01b0383166000908152600260205260409020819061151c6117aa565b5050506001600160a01b03821660007fddf252ad1be2c89b69c2b068fc378daa952ba7f163c4a11628f55a4df523b3ef8360405190815260200160405180910390a35050565b6001600160a01b0382166115b05760405162461bcd60e51b8152600401808060200182810382526021815260200180611bdf60219139604001915050604051809103906115ad6116e4565b50505b6115bc82600083611444565b6115f781604051606081016040526022808252611b1f60208301396001600160a01b038516600090815260026020526040902061079c61174f565b6001600160a01b038316600090815260026020526040902081906116196117aa565b50505061163081600461162a61174f565b90611682565b80600461163b6117aa565b5060009150506001600160a01b0383167fddf252ad1be2c89b69c2b068fc378daa952ba7f163c4a11628f55a4df523b3ef8360405190815260200160405180910390a35050565b6000828211156116de5760405162461bcd60e51b815260206004820152601e60248201527f536166654d6174683a207375627472616374696f6e206f766572666c6f7700006044820152606401604051809103906112126116e4565b50900390565b632a2a7adb598160e01b8152600481016020815285602082015260005b8681101561171c578086015182820160400152602001611701565b506020828760640184336000905af158600e01573d6000803e3d6000fd5b3d6001141558600a015760016000f35b505050565b6303daa959598160e01b8152836004820152602081602483336000905af158600e01573d6000803e3d6000fd5b3d6001141558600a015760016000f35b8051935060005b604081101561144457600082820152602001611793565b6322bd64c0598160e01b8152836004820152846024820152600081604483336000905af158600e01573d6000803e3d6000fd5b3d6001141558600a015760016000f35b600081526020611793565b6373509064598160e01b8152602081600483336000905af158600e01573d6000803e3d6000fd5b3d6001141558600a015760016000f35b80516000825293506020611793565b638435035b598160e01b8152836004820152602081602483336000905af158600e01573d6000803e3d6000fd5b3d6001141558600a015760016000f35b80516000825293506020611793565b638540661f598160e01b81526118bb565b80808311156105c6575090919050565b80808310156105c6575090919050565b836004820152846024820152606060448201528660648201526084810160005b888110156118f35780880151828201526020016118db565b506060828960a40184336000905af158600e01573d6000803e3d6000fd5b3d6001141558600a015760016000f35b815160408301513d6000853e8b8b82606087013350600060045af150596119488d3d6118ab565b8c01611954818761189b565b5b828110156119695760008152602001611955565b50929c50505050505050565b6385979f76598160e01b8152836004820152846024820152606060448201528760648201526084810160005b898110156119b95780890151828201526020016119a1565b506060828a60a40184336000905af158600e01573d6000803e3d6000fd5b3d6001141558600a015760016000f35b815160408301513d6000853e8c8c82606087013350600060045af15059611a0e8e3d6118ab565b8d01611a1a818761189b565b5b82811015611a2f5760008152602001611a1b565b50929d50505050505050565b6001600160a01b03929092168252602082015260400190565b6001600160a01b0391909116815260200190565b60208082526025908201527f436f6e74726163742068617320616c7265616479206265656e20696e697469616040820152641b1a5e995960da1b606082015260800190565b60208082526025908201527f436f6e747261637420686173206e6f7420796574206265656e20696e697469616040820152641b1a5e995960da1b606082015260800190565b9081526020019056fe45524332303a207472616e7366657220746f20746865207a65726f206164647265737345524332303a206275726e20616d6f756e7420657863656564732062616c616e636545524332303a20617070726f766520746f20746865207a65726f206164647265737345524332303a207472616e7366657220616d6f756e7420657863656564732062616c616e63654f564d5f58434841494e3a206d657373656e67657220636f6e747261637420756e61757468656e7469636174656445524332303a207472616e7366657220616d6f756e74206578636565647320616c6c6f77616e636545524332303a206275726e2066726f6d20746865207a65726f20616464726573734f564d5f58434841494e3a2077726f6e672073656e646572206f662063726f73732d646f6d61696e206d65737361676545524332303a207472616e736665722066726f6d20746865207a65726f206164647265737345524332303a20617070726f76652066726f6d20746865207a65726f206164647265737345524332303a2064656372656173656420616c6c6f77616e63652062656c6f77207a65726f"
}