{
  "address": "0x3e4CFaa8730092552d9425575E49bB542e329981",
  "abi": [
    {
      "inputs": [
        {
          "internalType": "address",
          "name": "_l2CrossDomainMessenger",
          "type": "address"
        },
        {
          "internalType": "string",
          "name": "_name",
          "type": "string"
        },
        {
          "internalType": "string",
          "name": "_symbol",
          "type": "string"
        }
      ],
      "stateMutability": "nonpayable",
      "type": "constructor"
    },
    {
      "anonymous": false,
      "inputs": [
        {
          "indexed": true,
          "internalType": "address",
          "name": "owner",
          "type": "address"
        },
        {
          "indexed": true,
          "internalType": "address",
          "name": "spender",
          "type": "address"
        },
        {
          "indexed": false,
          "internalType": "uint256",
          "name": "value",
          "type": "uint256"
        }
      ],
      "name": "Approval",
      "type": "event"
    },
    {
      "anonymous": false,
      "inputs": [
        {
          "indexed": true,
          "internalType": "address",
          "name": "_to",
          "type": "address"
        },
        {
          "indexed": false,
          "internalType": "uint256",
          "name": "_amount",
          "type": "uint256"
        }
      ],
      "name": "DepositFinalized",
      "type": "event"
    },
    {
      "anonymous": false,
      "inputs": [
        {
          "indexed": false,
          "internalType": "contract iOVM_L1TokenGateway",
          "name": "_l1TokenGateway",
          "type": "address"
        }
      ],
      "name": "Initialized",
      "type": "event"
    },
    {
      "anonymous": false,
      "inputs": [
        {
          "indexed": true,
          "internalType": "address",
          "name": "from",
          "type": "address"
        },
        {
          "indexed": true,
          "internalType": "address",
          "name": "to",
          "type": "address"
        },
        {
          "indexed": false,
          "internalType": "uint256",
          "name": "value",
          "type": "uint256"
        }
      ],
      "name": "Transfer",
      "type": "event"
    },
    {
      "anonymous": false,
      "inputs": [
        {
          "indexed": true,
          "internalType": "address",
          "name": "_from",
          "type": "address"
        },
        {
          "indexed": false,
          "internalType": "address",
          "name": "_to",
          "type": "address"
        },
        {
          "indexed": false,
          "internalType": "uint256",
          "name": "_amount",
          "type": "uint256"
        }
      ],
      "name": "WithdrawalInitiated",
      "type": "event"
    },
    {
      "inputs": [
        {
          "internalType": "address",
          "name": "owner",
          "type": "address"
        },
        {
          "internalType": "address",
          "name": "spender",
          "type": "address"
        }
      ],
      "name": "allowance",
      "outputs": [
        {
          "internalType": "uint256",
          "name": "",
          "type": "uint256"
        }
      ],
      "stateMutability": "view",
      "type": "function"
    },
    {
      "inputs": [
        {
          "internalType": "address",
          "name": "spender",
          "type": "address"
        },
        {
          "internalType": "uint256",
          "name": "amount",
          "type": "uint256"
        }
      ],
      "name": "approve",
      "outputs": [
        {
          "internalType": "bool",
          "name": "",
          "type": "bool"
        }
      ],
      "stateMutability": "nonpayable",
      "type": "function"
    },
    {
      "inputs": [
        {
          "internalType": "address",
          "name": "account",
          "type": "address"
        }
      ],
      "name": "balanceOf",
      "outputs": [
        {
          "internalType": "uint256",
          "name": "",
          "type": "uint256"
        }
      ],
      "stateMutability": "view",
      "type": "function"
    },
    {
      "inputs": [],
      "name": "decimals",
      "outputs": [
        {
          "internalType": "uint8",
          "name": "",
          "type": "uint8"
        }
      ],
      "stateMutability": "view",
      "type": "function"
    },
    {
      "inputs": [
        {
          "internalType": "address",
          "name": "spender",
          "type": "address"
        },
        {
          "internalType": "uint256",
          "name": "subtractedValue",
          "type": "uint256"
        }
      ],
      "name": "decreaseAllowance",
      "outputs": [
        {
          "internalType": "bool",
          "name": "",
          "type": "bool"
        }
      ],
      "stateMutability": "nonpayable",
      "type": "function"
    },
    {
      "inputs": [
        {
          "internalType": "address",
          "name": "_to",
          "type": "address"
        },
        {
          "internalType": "uint256",
          "name": "_amount",
          "type": "uint256"
        }
      ],
      "name": "finalizeDeposit",
      "outputs": [],
      "stateMutability": "nonpayable",
      "type": "function"
    },
    {
      "inputs": [],
      "name": "getFinalizeWithdrawalL1Gas",
      "outputs": [
        {
          "internalType": "uint32",
          "name": "",
          "type": "uint32"
        }
      ],
      "stateMutability": "view",
      "type": "function"
    },
    {
      "inputs": [
        {
          "internalType": "address",
          "name": "spender",
          "type": "address"
        },
        {
          "internalType": "uint256",
          "name": "addedValue",
          "type": "uint256"
        }
      ],
      "name": "increaseAllowance",
      "outputs": [
        {
          "internalType": "bool",
          "name": "",
          "type": "bool"
        }
      ],
      "stateMutability": "nonpayable",
      "type": "function"
    },
    {
      "inputs": [
        {
          "internalType": "contract iOVM_L1TokenGateway",
          "name": "_l1TokenGateway",
          "type": "address"
        }
      ],
      "name": "init",
      "outputs": [],
      "stateMutability": "nonpayable",
      "type": "function"
    },
    {
      "inputs": [],
      "name": "l1TokenGateway",
      "outputs": [
        {
          "internalType": "contract iOVM_L1TokenGateway",
          "name": "",
          "type": "address"
        }
      ],
      "stateMutability": "view",
      "type": "function"
    },
    {
      "inputs": [],
      "name": "messenger",
      "outputs": [
        {
          "internalType": "address",
          "name": "",
          "type": "address"
        }
      ],
      "stateMutability": "view",
      "type": "function"
    },
    {
      "inputs": [],
      "name": "name",
      "outputs": [
        {
          "internalType": "string",
          "name": "",
          "type": "string"
        }
      ],
      "stateMutability": "view",
      "type": "function"
    },
    {
      "inputs": [],
      "name": "symbol",
      "outputs": [
        {
          "internalType": "string",
          "name": "",
          "type": "string"
        }
      ],
      "stateMutability": "view",
      "type": "function"
    },
    {
      "inputs": [],
      "name": "totalSupply",
      "outputs": [
        {
          "internalType": "uint256",
          "name": "",
          "type": "uint256"
        }
      ],
      "stateMutability": "view",
      "type": "function"
    },
    {
      "inputs": [
        {
          "internalType": "address",
          "name": "recipient",
          "type": "address"
        },
        {
          "internalType": "uint256",
          "name": "amount",
          "type": "uint256"
        }
      ],
      "name": "transfer",
      "outputs": [
        {
          "internalType": "bool",
          "name": "",
          "type": "bool"
        }
      ],
      "stateMutability": "nonpayable",
      "type": "function"
    },
    {
      "inputs": [
        {
          "internalType": "address",
          "name": "sender",
          "type": "address"
        },
        {
          "internalType": "address",
          "name": "recipient",
          "type": "address"
        },
        {
          "internalType": "uint256",
          "name": "amount",
          "type": "uint256"
        }
      ],
      "name": "transferFrom",
      "outputs": [
        {
          "internalType": "bool",
          "name": "",
          "type": "bool"
        }
      ],
      "stateMutability": "nonpayable",
      "type": "function"
    },
    {
      "inputs": [
        {
          "internalType": "uint256",
          "name": "_amount",
          "type": "uint256"
        }
      ],
      "name": "withdraw",
      "outputs": [],
      "stateMutability": "nonpayable",
      "type": "function"
    },
    {
      "inputs": [
        {
          "internalType": "address",
          "name": "_to",
          "type": "address"
        },
        {
          "internalType": "uint256",
          "name": "_amount",
          "type": "uint256"
        }
      ],
      "name": "withdrawTo",
      "outputs": [],
      "stateMutability": "nonpayable",
      "type": "function"
    }
  ],
  "transactionHash": "0x5f6901d9c49377c6bd823b9eee5a820a3c2a39c3971ee679813d700b69e0a96f",
  "args": [
    "0x4200000000000000000000000000000000000007",
    "JunkCoin",
    "JKC"
  ],
  "solcInputHash": "651826c5571b9d32e3bb0531c78af9e4",
  "bytecode": "0x60806040523480156200001c57600080620000196200046b565b50505b506040516200217138038062002171833981810160405260608110156200004d576000806200004a6200046b565b50505b8101908080519291906020018051604051939291908464010000000082111562000081576000806200007e6200046b565b50505b908301906020820185811115620000a2576000806200009f6200046b565b50505b8251640100000000811182820188101715620000c857600080620000c56200046b565b50505b825250602001908051906020019080838360005b83811015620000f6578082015183820152602001620000dc565b50505050905090810190601f168015620001245780820380516001836020036101000a031916815260200191505b50604052602001805160405193929190846401000000008211156200015357600080620001506200046b565b50505b9083019060208201858111156200017457600080620001716200046b565b50505b82516401000000008111828201881017156200019a57600080620001976200046b565b50505b825250602001908051906020019080838360005b83811015620001c8578082015183820152602001620001ae565b50505050905090810190601f168015620001f65780820380516001836020036101000a031916815260200191505b506040525050508181600082828780806000806101000a8162000218620004d8565b816001600160a01b0302191690836001600160a01b03160217906200023c62000535565b50505050508160059080516200025792916020019062000584565b5060068180516200026d92916020019062000584565b50601260076001816200027f620004d8565b8160ff021916908360ff160217906200029762000535565b5050505050620002b25a620002ab62000646565b82620002be565b505050505050620006b0565b6001600160a01b038216620003245760405162461bcd60e51b815260206004820152601f60248201527f45524332303a206d696e7420746f20746865207a65726f206164647265737300604482015260640160405180910390620003216200046b565b50505b6200033260008383620003fa565b6200035781600462000343620004d8565b620003ff60201b62000c261790919060201c565b8060046200036462000535565b5050506001600160a01b03821660009081526002602052620003909082906040902062000343620004d8565b6001600160a01b03831660009081526002602052604090208190620003b462000535565b5050506001600160a01b03821660007fddf252ad1be2c89b69c2b068fc378daa952ba7f163c4a11628f55a4df523b3ef8360405190815260200160405180910390a35050565b505050565b600082820183811015620004645760405162461bcd60e51b815260206004820152601b60248201527f536166654d6174683a206164646974696f6e206f766572666c6f770000000000604482015260640160405180910390620004616200046b565b50505b9392505050565b632a2a7adb598160e01b8152600481016020815285602082015260005b86811015620004a557808601518282016040015260200162000488565b506020828760640184336000905af158600e01573d6000803e3d6000fd5b3d6001141558600a015760016000f35b505050565b6303daa959598160e01b8152836004820152602081602483336000905af158600e01573d6000803e3d6000fd5b3d6001141558600a015760016000f35b8051935060005b6040811015620003fa576000828201526020016200051c565b6322bd64c0598160e01b8152836004820152846024820152600081604483336000905af158600e01573d6000803e3d6000fd5b3d6001141558600a015760016000f35b6000815260206200051c565b828062000590620004d8565b600181600116156101000203166002900490600052602060002090601f016020900481019282620005d057600085620005c862000535565b505062000634565b82601f10620005ee57805160ff19168380011785620005c862000535565b82800160010185620005ff62000535565b5050821562000634579182015b8281111562000634578251826200062262000535565b5050916020019190600101906200060c565b50620006429291506200068d565b5090565b6373509064598160e01b8152602081600483336000905af158600e01573d6000803e3d6000fd5b3d6001141558600a015760016000f35b805160008252935060206200051c565b80821115620006425760008082620006a462000535565b5050506001016200068d565b611ab180620006c06000396000f3fe6080604052348015610019576000806100166114f7565b50505b506004361061013f5760003560e01c80633cb747bf116100bb578063a457c2d71161008a578063a9059cbb1161006f578063a9059cbb1461041a578063bdeaf6411461044f578063dd62ed3e146104705761013f565b8063a457c2d7146103dd578063a84ce98c146104125761013f565b80633cb747bf1461034d57806370a08231146103715780638d6e9a5b146103a057806395d89b41146103d55761013f565b8063205c2878116101125780632e1a7d4d116100f75780632e1a7d4d146102d4578063313ce567146102fa57806339509351146103185761013f565b8063205c28781461026057806323b872dd146102955761013f565b806306fdde031461014d578063095ea7b3146101cc57806318160ddd1461021557806319ab453c1461022f575b60008061014a6114f7565b50505b6101556104a7565b60405160208082528190810183818151815260200191508051906020019080838360005b83811015610191578082015183820152602001610179565b50505050905090810190601f1680156101be5780820380516001836020036101000a031916815260200191505b509250505060405180910390f35b610201600480360360408110156101eb576000806101e86114f7565b50505b506001600160a01b038135169060200135610564565b604051901515815260200160405180910390f35b61021d610582565b60405190815260200160405180910390f35b61025e6004803603602081101561024e5760008061024b6114f7565b50505b50356001600160a01b0316610593565b005b61025e6004803603604081101561027f5760008061027c6114f7565b50505b506001600160a01b038135169060200135610670565b610201600480360360608110156102b4576000806102b16114f7565b50505b506001600160a01b038135811691602081013590911690604001356106d4565b61025e600480360360208110156102f3576000806102f06114f7565b50505b5035610768565b6103026107d3565b60405160ff909116815260200160405180910390f35b61020160048036036040811015610337576000806103346114f7565b50505b506001600160a01b0381351690602001356107d8565b61035561083d565b6040516001600160a01b03909116815260200160405180910390f35b61021d600480360360208110156103905760008061038d6114f7565b50505b50356001600160a01b031661085b565b61025e600480360360408110156103bf576000806103bc6114f7565b50505b506001600160a01b03813516906020013561087b565b610155610aa3565b610201600480360360408110156103fc576000806103f96114f7565b50505b506001600160a01b038135169060200135610b49565b610355610bbf565b61020160048036036040811015610439576000806104366114f7565b50505b506001600160a01b038135169060200135610bcb565b610457610bdf565b60405163ffffffff909116815260200160405180910390f35b61021d6004803603604081101561048f5760008061048c6114f7565b50505b506001600160a01b0381358116916020013516610be6565b60606005806104b4611562565b600181600116156101000203166002900480601f0160208091040260200160405190810160405281815291906020830182806104ee611562565b6001816001161561010002031660029004801561055a5780601f1061052857610100808361051a611562565b04028352916020019161055a565b820191906000526020600020905b8161053f611562565b8152906001019060200180831161053657829003601f168201915b5050505050905090565b6000610578610571610c8e565b8484610c99565b5060015b92915050565b6000600461058e611562565b905090565b60008060016105a0611562565b906101000a90046001600160a01b03166001600160a01b0316146105e85760405162461bcd60e51b81526004016105d69061187b565b604051809103906105e56114f7565b50505b80600180806105f5611562565b816001600160a01b0302191690836001600160a01b03160217906106176115bd565b5050507f908408e307fc569b417f6cbec5d5a06f44a0a505ac0479b47d421a4b2fd6a1e66001600090610648611562565b906101000a90046001600160a01b03166040516106659190611867565b60405180910390a150565b600080600161067d611562565b906101000a90046001600160a01b03166001600160a01b031614156106c65760405162461bcd60e51b81526004016106b4906118c0565b604051809103906106c36114f7565b50505b6106d08282610dc1565b5050565b60006106e1848484610ecb565b61075e846106ed610c8e565b610759856040516060810160405260288082526119ca60208301396001600160a01b038a166000908152600360205260409020600061072a610c8e565b6001600160a01b03166001600160a01b03168152602001908152602001600020610752611562565b9190611069565b610c99565b5060019392505050565b6000806001610775611562565b906101000a90046001600160a01b03166001600160a01b031614156107be5760405162461bcd60e51b81526004016107ac906118c0565b604051809103906107bb6114f7565b50505b6107d05a6107ca61160b565b82610dc1565b50565b600090565b60006105786107e5610c8e565b8461075985600360006107f6610c8e565b6001600160a01b03166001600160a01b031681526020019081526020016000206001600160a01b038916600090815260209190915260409020610837611562565b90610c26565b600080610848611562565b906101000a90046001600160a01b031681565b6001600160a01b038116600090815260026020526040812061057c611562565b6000806001610888611562565b906101000a90046001600160a01b03166001600160a01b031614156108d15760405162461bcd60e51b81526004016108bf906118c0565b604051809103906108ce6114f7565b50505b600060016108dd611562565b906101000a90046001600160a01b03166108f5611109565b6001600160a01b03165a61090761160b565b6001600160a01b0316146109555760405162461bcd60e51b815260040180806020018281038252602e81526020018061199c602e9139604001915050604051809103906109526114f7565b50505b806001600160a01b0316610967611109565b6001600160a01b0316636e296e456040518163ffffffff1660e01b8152600401602060405180830381868061099a611651565b1580156109af576000806109ac6114f7565b50505b505a6109b961169d565b50505050501580156109d8573d6000803e3d60006109d56114f7565b50505b505050506040513d60208110156109f7576000806109f46114f7565b50505b8101908080516001600160a01b0316939093149250610a539150505760405162461bcd60e51b8152600401808060200182810382526030815260200180611a136030913960400191505060405180910390610a506114f7565b50505b610a5d838361112a565b826001600160a01b03167f162eb12ad2bd8b6ca7960f162208414ab3bc2da9f37953788ffd8cf850c3492b83604051610a969190611905565b60405180910390a2505050565b6060600680610ab0611562565b600181600116156101000203166002900480601f016020809104026020016040519081016040528181529190602083018280610aea611562565b6001816001161561010002031660029004801561055a5780601f10610b1657610100808361051a611562565b820191906000526020600020905b81610b2d611562565b81529060010190602001808311610b2457509395945050505050565b6000610578610b56610c8e565b8461075985604051606081016040526025808252611a8c602083013960036000610b7e610c8e565b6001600160a01b03166001600160a01b031681526020019081526020016000206001600160a01b038a16600090815260209190915260409020610752611562565b60006001610848611562565b6000610578610bd8610c8e565b8484610ecb565b620186a090565b6001600160a01b03821660009081526003602052604081206001600160a01b038316600090815260209190915260409020610c1f611562565b9392505050565b600082820183811015610c1f5760405162461bcd60e51b815260206004820152601b60248201527f536166654d6174683a206164646974696f6e206f766572666c6f770000000000604482015260640160405180910390610c856114f7565b50509392505050565b60005a61058e61160b565b6001600160a01b038316610ce75760405162461bcd60e51b8152600401808060200182810382526024815260200180611a686024913960400191505060405180910390610ce46114f7565b50505b6001600160a01b038216610d355760405162461bcd60e51b81526004018080602001828103825260228152602001806119546022913960400191505060405180910390610d326114f7565b50505b6001600160a01b038316600090815260036020528190604090206001600160a01b0384166000908152602091909152604090208190610d726115bd565b505050816001600160a01b0316836001600160a01b03167f8c5be1e5ebec7d5bd14f71427d1e84f3dd0314c0f7b2291e5b200ac8c7c3b9258360405190815260200160405180910390a3505050565b610dcb8282611134565b60007ff4f7b41a000000000000000000000000000000000000000000000000000000008383604051602401610e0192919061184e565b604051602081830303815290604052907bffffffffffffffffffffffffffffffffffffffffffffffffffffffff19166020820180517bffffffffffffffffffffffffffffffffffffffffffffffffffffffff1690911790529050610e8860006001610e6a611562565b906101000a90046001600160a01b031682610e83610bdf565b611146565b5a610e9161160b565b6001600160a01b03167fbb2689ff876f7ef453cf8865dde5ab10349d222e2e1383c5152fbdb083f02da28484604051610a9692919061184e565b6001600160a01b038316610f195760405162461bcd60e51b8152600401808060200182810382526025815260200180611a436025913960400191505060405180910390610f166114f7565b50505b6001600160a01b038216610f675760405162461bcd60e51b815260040180806020018281038252602381526020018061190f6023913960400191505060405180910390610f646114f7565b50505b610f72838383611257565b610fad8160405160608101604052602680825261197660208301396001600160a01b0386166000908152600260205260409020610752611562565b6001600160a01b03841660009081526002602052604090208190610fcf6115bd565b5050506001600160a01b03821660009081526002602052610ff890829060409020610837611562565b6001600160a01b0383166000908152600260205260409020819061101a6115bd565b505050816001600160a01b0316836001600160a01b03167fddf252ad1be2c89b69c2b068fc378daa952ba7f163c4a11628f55a4df523b3ef8360405190815260200160405180910390a3505050565b600081848411156111015760405162461bcd60e51b81526004018080602001828103825283818151815260200191508051906020019080838360005b838110156110bd5780820151838201526020016110a5565b50505050905090810190601f1680156110ea5780820380516001836020036101000a031916815260200191505b5092505050604051809103906110fe6114f7565b50505b505050900390565b60008080611115611562565b906101000a90046001600160a01b0316905090565b6106d0828261125c565b6106d05a61114061160b565b82611375565b61114e611109565b6001600160a01b0316633dbb202b8484846040518463ffffffff1660e01b815260040180846001600160a01b03168152602001806020018363ffffffff168152602001828103825284818151815260200191508051906020019080838360005b838110156111c65780820151838201526020016111ae565b50505050905090810190601f1680156111f35780820380516001836020036101000a031916815260200191505b509450505050506000604051808303816000878061120f611651565b158015611224576000806112216114f7565b50505b505a61122e611788565b50505050505015801561124e573d6000803e3d600061124b6114f7565b50505b50505050505050565b505050565b6001600160a01b0382166112bf5760405162461bcd60e51b815260206004820152601f60248201527f45524332303a206d696e7420746f20746865207a65726f2061646472657373006044820152606401604051809103906112bc6114f7565b50505b6112cb60008383611257565b6112d9816004610837611562565b8060046112e46115bd565b5050506001600160a01b0382166000908152600260205261130d90829060409020610837611562565b6001600160a01b0383166000908152600260205260409020819061132f6115bd565b5050506001600160a01b03821660007fddf252ad1be2c89b69c2b068fc378daa952ba7f163c4a11628f55a4df523b3ef8360405190815260200160405180910390a35050565b6001600160a01b0382166113c35760405162461bcd60e51b81526004018080602001828103825260218152602001806119f260219139604001915050604051809103906113c06114f7565b50505b6113cf82600083611257565b61140a8160405160608101604052602280825261193260208301396001600160a01b0385166000908152600260205260409020610752611562565b6001600160a01b0383166000908152600260205260409020819061142c6115bd565b50505061144381600461143d611562565b90611495565b80600461144e6115bd565b5060009150506001600160a01b0383167fddf252ad1be2c89b69c2b068fc378daa952ba7f163c4a11628f55a4df523b3ef8360405190815260200160405180910390a35050565b6000828211156114f15760405162461bcd60e51b815260206004820152601e60248201527f536166654d6174683a207375627472616374696f6e206f766572666c6f7700006044820152606401604051809103906111016114f7565b50900390565b632a2a7adb598160e01b8152600481016020815285602082015260005b8681101561152f578086015182820160400152602001611514565b506020828760640184336000905af158600e01573d6000803e3d6000fd5b3d6001141558600a015760016000f35b505050565b6303daa959598160e01b8152836004820152602081602483336000905af158600e01573d6000803e3d6000fd5b3d6001141558600a015760016000f35b8051935060005b6040811015611257576000828201526020016115a6565b6322bd64c0598160e01b8152836004820152846024820152600081604483336000905af158600e01573d6000803e3d6000fd5b3d6001141558600a015760016000f35b6000815260206115a6565b6373509064598160e01b8152602081600483336000905af158600e01573d6000803e3d6000fd5b3d6001141558600a015760016000f35b805160008252935060206115a6565b638435035b598160e01b8152836004820152602081602483336000905af158600e01573d6000803e3d6000fd5b3d6001141558600a015760016000f35b805160008252935060206115a6565b638540661f598160e01b81526116ce565b808083111561057c575090919050565b808083101561057c575090919050565b836004820152846024820152606060448201528660648201526084810160005b888110156117065780880151828201526020016116ee565b506060828960a40184336000905af158600e01573d6000803e3d6000fd5b3d6001141558600a015760016000f35b815160408301513d6000853e8b8b82606087013350600060045af1505961175b8d3d6116be565b8c0161176781876116ae565b5b8281101561177c5760008152602001611768565b50929c50505050505050565b6385979f76598160e01b8152836004820152846024820152606060448201528760648201526084810160005b898110156117cc5780890151828201526020016117b4565b506060828a60a40184336000905af158600e01573d6000803e3d6000fd5b3d6001141558600a015760016000f35b815160408301513d6000853e8c8c82606087013350600060045af150596118218e3d6116be565b8d0161182d81876116ae565b5b82811015611842576000815260200161182e565b50929d50505050505050565b6001600160a01b03929092168252602082015260400190565b6001600160a01b0391909116815260200190565b60208082526025908201527f436f6e74726163742068617320616c7265616479206265656e20696e697469616040820152641b1a5e995960da1b606082015260800190565b60208082526025908201527f436f6e747261637420686173206e6f7420796574206265656e20696e697469616040820152641b1a5e995960da1b606082015260800190565b9081526020019056fe45524332303a207472616e7366657220746f20746865207a65726f206164647265737345524332303a206275726e20616d6f756e7420657863656564732062616c616e636545524332303a20617070726f766520746f20746865207a65726f206164647265737345524332303a207472616e7366657220616d6f756e7420657863656564732062616c616e63654f564d5f58434841494e3a206d657373656e67657220636f6e747261637420756e61757468656e7469636174656445524332303a207472616e7366657220616d6f756e74206578636565647320616c6c6f77616e636545524332303a206275726e2066726f6d20746865207a65726f20616464726573734f564d5f58434841494e3a2077726f6e672073656e646572206f662063726f73732d646f6d61696e206d65737361676545524332303a207472616e736665722066726f6d20746865207a65726f206164647265737345524332303a20617070726f76652066726f6d20746865207a65726f206164647265737345524332303a2064656372656173656420616c6c6f77616e63652062656c6f77207a65726f",
  "devdoc": {
    "kind": "dev",
    "methods": {
      "allowance(address,address)": {
        "details": "See {IERC20-allowance}."
      },
      "approve(address,uint256)": {
        "details": "See {IERC20-approve}. Requirements: - `spender` cannot be the zero address."
      },
      "balanceOf(address)": {
        "details": "See {IERC20-balanceOf}."
      },
      "decimals()": {
        "details": "Returns the number of decimals used to get its user representation. For example, if `decimals` equals `2`, a balance of `505` tokens should be displayed to a user as `5,05` (`505 / 10 ** 2`). Tokens usually opt for a value of 18, imitating the relationship between Ether and Wei. This is the value {ERC20} uses, unless {_setupDecimals} is called. NOTE: This information is only used for _display_ purposes: it in no way affects any of the arithmetic of the contract, including {IERC20-balanceOf} and {IERC20-transfer}."
      },
      "decreaseAllowance(address,uint256)": {
        "details": "Atomically decreases the allowance granted to `spender` by the caller. This is an alternative to {approve} that can be used as a mitigation for problems described in {IERC20-approve}. Emits an {Approval} event indicating the updated allowance. Requirements: - `spender` cannot be the zero address. - `spender` must have allowance for the caller of at least `subtractedValue`."
      },
      "finalizeDeposit(address,uint256)": {
        "details": "Complete a deposit from L1 to L2, and credits funds to the recipient's balance of this  L2 token.  This call will fail if it did not originate from a corresponding deposit in OVM_l1TokenGateway. ",
        "params": {
          "_amount": "Amount of the token to withdraw",
          "_to": "Address to receive the withdrawal at"
        }
      },
      "getFinalizeWithdrawalL1Gas()": {
        "details": "Overridable getter for the *L1* gas limit of settling the withdrawal, in the case it may be dynamic, and the above public constant does not suffice."
      },
      "increaseAllowance(address,uint256)": {
        "details": "Atomically increases the allowance granted to `spender` by the caller. This is an alternative to {approve} that can be used as a mitigation for problems described in {IERC20-approve}. Emits an {Approval} event indicating the updated allowance. Requirements: - `spender` cannot be the zero address."
      },
      "init(address)": {
        "details": "Initialize this contract with the L1 token gateway address. The flow: 1) this contract gets deployed on L2, 2) the L1 gateway is deployed with addr from (1), 3) L1 gateway address passed here.",
        "params": {
          "_l1TokenGateway": "Address of the corresponding L1 gateway deployed to the main chain"
        }
      },
      "name()": {
        "details": "Returns the name of the token."
      },
      "symbol()": {
        "details": "Returns the symbol of the token, usually a shorter version of the name."
      },
      "totalSupply()": {
        "details": "See {IERC20-totalSupply}."
      },
      "transfer(address,uint256)": {
        "details": "See {IERC20-transfer}. Requirements: - `recipient` cannot be the zero address. - the caller must have a balance of at least `amount`."
      },
      "transferFrom(address,address,uint256)": {
        "details": "See {IERC20-transferFrom}. Emits an {Approval} event indicating the updated allowance. This is not required by the EIP. See the note at the beginning of {ERC20}. Requirements: - `sender` and `recipient` cannot be the zero address. - `sender` must have a balance of at least `amount`. - the caller must have allowance for ``sender``'s tokens of at least `amount`."
      },
      "withdraw(uint256)": {
        "details": "initiate a withdraw of some tokens to the caller's account on L1",
        "params": {
          "_amount": "Amount of the token to withdraw"
        }
      },
      "withdrawTo(address,uint256)": {
        "details": "initiate a withdraw of some token to a recipient's account on L1",
        "params": {
          "_amount": "Amount of the token to withdraw",
          "_to": "L1 adress to credit the withdrawal to"
        }
      }
    },
    "version": 1
  },
  "userdoc": {
    "kind": "user",
    "methods": {},
    "notice": "Runtime target: OVM",
    "version": 1
  },
  "storageLayout": {
    "storage": [
      {
        "astId": 327,
        "contract": "contracts/JunkCoinDepositedERC20.sol:JunkCoinDepositedERC20",
        "label": "messenger",
        "offset": 0,
        "slot": "0",
        "type": "t_address"
      },
      {
        "astId": 19,
        "contract": "contracts/JunkCoinDepositedERC20.sol:JunkCoinDepositedERC20",
        "label": "l1TokenGateway",
        "offset": 0,
        "slot": "1",
        "type": "t_contract(iOVM_L1TokenGateway)282"
      },
      {
        "astId": 769,
        "contract": "contracts/JunkCoinDepositedERC20.sol:JunkCoinDepositedERC20",
        "label": "_balances",
        "offset": 0,
        "slot": "2",
        "type": "t_mapping(t_address,t_uint256)"
      },
      {
        "astId": 775,
        "contract": "contracts/JunkCoinDepositedERC20.sol:JunkCoinDepositedERC20",
        "label": "_allowances",
        "offset": 0,
        "slot": "3",
        "type": "t_mapping(t_address,t_mapping(t_address,t_uint256))"
      },
      {
        "astId": 777,
        "contract": "contracts/JunkCoinDepositedERC20.sol:JunkCoinDepositedERC20",
        "label": "_totalSupply",
        "offset": 0,
        "slot": "4",
        "type": "t_uint256"
      },
      {
        "astId": 779,
        "contract": "contracts/JunkCoinDepositedERC20.sol:JunkCoinDepositedERC20",
        "label": "_name",
        "offset": 0,
        "slot": "5",
        "type": "t_string_storage"
      },
      {
        "astId": 781,
        "contract": "contracts/JunkCoinDepositedERC20.sol:JunkCoinDepositedERC20",
        "label": "_symbol",
        "offset": 0,
        "slot": "6",
        "type": "t_string_storage"
      },
      {
        "astId": 783,
        "contract": "contracts/JunkCoinDepositedERC20.sol:JunkCoinDepositedERC20",
        "label": "_decimals",
        "offset": 0,
        "slot": "7",
        "type": "t_uint8"
      }
    ],
    "types": {
      "t_address": {
        "encoding": "inplace",
        "label": "address",
        "numberOfBytes": "20"
      },
      "t_contract(iOVM_L1TokenGateway)282": {
        "encoding": "inplace",
        "label": "contract iOVM_L1TokenGateway",
        "numberOfBytes": "20"
      },
      "t_mapping(t_address,t_mapping(t_address,t_uint256))": {
        "encoding": "mapping",
        "key": "t_address",
        "label": "mapping(address => mapping(address => uint256))",
        "numberOfBytes": "32",
        "value": "t_mapping(t_address,t_uint256)"
      },
      "t_mapping(t_address,t_uint256)": {
        "encoding": "mapping",
        "key": "t_address",
        "label": "mapping(address => uint256)",
        "numberOfBytes": "32",
        "value": "t_uint256"
      },
      "t_string_storage": {
        "encoding": "bytes",
        "label": "string",
        "numberOfBytes": "32"
      },
      "t_uint256": {
        "encoding": "inplace",
        "label": "uint256",
        "numberOfBytes": "32"
      },
      "t_uint8": {
        "encoding": "inplace",
        "label": "uint8",
        "numberOfBytes": "1"
      }
    }
  }
}